{
	"contracts/RevenueSharing.sol": {
		"RevenueSharing": {
			"abi": [
				{
					"inputs": [],
					"stateMutability": "nonpayable",
					"type": "constructor"
				},
				{
					"inputs": [],
					"name": "InvalidSharePercentage",
					"type": "error"
				},
				{
					"inputs": [],
					"name": "InvalidTotalShares",
					"type": "error"
				},
				{
					"inputs": [],
					"name": "NotAuthorized",
					"type": "error"
				},
				{
					"inputs": [
						{
							"internalType": "address",
							"name": "participant",
							"type": "address"
						},
						{
							"internalType": "uint256",
							"name": "sharePercentage",
							"type": "uint256"
						}
					],
					"name": "addParticipant",
					"outputs": [],
					"stateMutability": "nonpayable",
					"type": "function"
				},
				{
					"inputs": [],
					"name": "distributeRevenue",
					"outputs": [],
					"stateMutability": "payable",
					"type": "function"
				},
				{
					"inputs": [],
					"name": "owner",
					"outputs": [
						{
							"internalType": "address",
							"name": "",
							"type": "address"
						}
					],
					"stateMutability": "view",
					"type": "function"
				},
				{
					"inputs": [
						{
							"internalType": "uint256",
							"name": "",
							"type": "uint256"
						}
					],
					"name": "participants",
					"outputs": [
						{
							"internalType": "address",
							"name": "",
							"type": "address"
						}
					],
					"stateMutability": "view",
					"type": "function"
				},
				{
					"inputs": [
						{
							"internalType": "address",
							"name": "",
							"type": "address"
						}
					],
					"name": "shares",
					"outputs": [
						{
							"internalType": "uint256",
							"name": "",
							"type": "uint256"
						}
					],
					"stateMutability": "view",
					"type": "function"
				},
				{
					"stateMutability": "payable",
					"type": "receive"
				}
			],
			"devdoc": {
				"details": "The contract uses custom errors for better gas efficiency.",
				"kind": "dev",
				"methods": {
					"addParticipant(address,uint256)": {
						"details": "Only the owner can add participants. The total share percentage should not exceed 100%. If a participant already exists, no changes are made.",
						"params": {
							"participant": "The address of the participant",
							"sharePercentage": "The percentage of the revenue this participant will receive (between 0 and 100)"
						}
					},
					"constructor": {
						"details": "Sets the contract owner as the address deploying the contract"
					},
					"distributeRevenue()": {
						"details": "The contract owner can call this function to distribute the funds. The total shares must equal 100%. The revenue is distributed proportionally based on the participants' share percentages."
					}
				},
				"title": "Revenue Sharing Contract",
				"version": 1
			},
			"evm": {
				"assembly": "    /* \"contracts/RevenueSharing.sol\":510:3151  contract RevenueSharing {... */\n  mstore(0x40, 0x80)\n    /* \"contracts/RevenueSharing.sol\":882:931  constructor() {... */\n  callvalue\n  dup1\n  iszero\n  tag_1\n  jumpi\n  revert(0x00, 0x00)\ntag_1:\n  pop\n    /* \"contracts/RevenueSharing.sol\":914:924  msg.sender */\n  caller\n    /* \"contracts/RevenueSharing.sol\":906:911  owner */\n  0x00\n  0x00\n    /* \"contracts/RevenueSharing.sol\":906:924  owner = msg.sender */\n  0x0100\n  exp\n  dup2\n  sload\n  dup2\n  0xffffffffffffffffffffffffffffffffffffffff\n  mul\n  not\n  and\n  swap1\n  dup4\n  0xffffffffffffffffffffffffffffffffffffffff\n  and\n  mul\n  or\n  swap1\n  sstore\n  pop\n    /* \"contracts/RevenueSharing.sol\":510:3151  contract RevenueSharing {... */\n  dataSize(sub_0)\n  dup1\n  dataOffset(sub_0)\n  0x00\n  codecopy\n  0x00\n  return\nstop\n\nsub_0: assembly {\n        /* \"contracts/RevenueSharing.sol\":510:3151  contract RevenueSharing {... */\n      mstore(0x40, 0x80)\n      jumpi(tag_1, lt(calldatasize, 0x04))\n      shr(0xe0, calldataload(0x00))\n      dup1\n      0x01e7fefe\n      eq\n      tag_3\n      jumpi\n      dup1\n      0x2d07953a\n      eq\n      tag_4\n      jumpi\n      dup1\n      0x35c1d349\n      eq\n      tag_5\n      jumpi\n      dup1\n      0x8da5cb5b\n      eq\n      tag_6\n      jumpi\n      dup1\n      0xce7c2ac2\n      eq\n      tag_7\n      jumpi\n      jump(tag_2)\n    tag_1:\n      jumpi(tag_2, calldatasize)\n      stop\n    tag_2:\n      revert(0x00, 0x00)\n        /* \"contracts/RevenueSharing.sol\":1549:2075  function addParticipant(address participant, uint256 sharePercentage) public onlyOwner {... */\n    tag_3:\n      callvalue\n      dup1\n      iszero\n      tag_10\n      jumpi\n      revert(0x00, 0x00)\n    tag_10:\n      pop\n      tag_11\n      0x04\n      dup1\n      calldatasize\n      sub\n      dup2\n      add\n      swap1\n      tag_12\n      swap2\n      swap1\n      tag_13\n      jump\t// in\n    tag_12:\n      tag_14\n      jump\t// in\n    tag_11:\n      stop\n        /* \"contracts/RevenueSharing.sol\":2384:3068  function distributeRevenue() public payable onlyOwner {... */\n    tag_4:\n      tag_15\n      tag_16\n      jump\t// in\n    tag_15:\n      stop\n        /* \"contracts/RevenueSharing.sol\":771:800  address[] public participants */\n    tag_5:\n      callvalue\n      dup1\n      iszero\n      tag_17\n      jumpi\n      revert(0x00, 0x00)\n    tag_17:\n      pop\n      tag_18\n      0x04\n      dup1\n      calldatasize\n      sub\n      dup2\n      add\n      swap1\n      tag_19\n      swap2\n      swap1\n      tag_20\n      jump\t// in\n    tag_19:\n      tag_21\n      jump\t// in\n    tag_18:\n      mload(0x40)\n      tag_22\n      swap2\n      swap1\n      tag_23\n      jump\t// in\n    tag_22:\n      mload(0x40)\n      dup1\n      swap2\n      sub\n      swap1\n      return\n        /* \"contracts/RevenueSharing.sol\":581:601  address public owner */\n    tag_6:\n      callvalue\n      dup1\n      iszero\n      tag_24\n      jumpi\n      revert(0x00, 0x00)\n    tag_24:\n      pop\n      tag_25\n      tag_26\n      jump\t// in\n    tag_25:\n      mload(0x40)\n      tag_27\n      swap2\n      swap1\n      tag_23\n      jump\t// in\n    tag_27:\n      mload(0x40)\n      dup1\n      swap2\n      sub\n      swap1\n      return\n        /* \"contracts/RevenueSharing.sol\":673:714  mapping(address => uint256) public shares */\n    tag_7:\n      callvalue\n      dup1\n      iszero\n      tag_28\n      jumpi\n      revert(0x00, 0x00)\n    tag_28:\n      pop\n      tag_29\n      0x04\n      dup1\n      calldatasize\n      sub\n      dup2\n      add\n      swap1\n      tag_30\n      swap2\n      swap1\n      tag_31\n      jump\t// in\n    tag_30:\n      tag_32\n      jump\t// in\n    tag_29:\n      mload(0x40)\n      tag_33\n      swap2\n      swap1\n      tag_34\n      jump\t// in\n    tag_33:\n      mload(0x40)\n      dup1\n      swap2\n      sub\n      swap1\n      return\n        /* \"contracts/RevenueSharing.sol\":1549:2075  function addParticipant(address participant, uint256 sharePercentage) public onlyOwner {... */\n    tag_14:\n        /* \"contracts/RevenueSharing.sol\":1070:1075  owner */\n      0x00\n      0x00\n      swap1\n      sload\n      swap1\n      0x0100\n      exp\n      swap1\n      div\n      0xffffffffffffffffffffffffffffffffffffffff\n      and\n        /* \"contracts/RevenueSharing.sol\":1056:1075  msg.sender != owner */\n      0xffffffffffffffffffffffffffffffffffffffff\n      and\n        /* \"contracts/RevenueSharing.sol\":1056:1066  msg.sender */\n      caller\n        /* \"contracts/RevenueSharing.sol\":1056:1075  msg.sender != owner */\n      0xffffffffffffffffffffffffffffffffffffffff\n      and\n      eq\n        /* \"contracts/RevenueSharing.sol\":1052:1099  if (msg.sender != owner) revert NotAuthorized() */\n      tag_36\n      jumpi\n        /* \"contracts/RevenueSharing.sol\":1084:1099  NotAuthorized() */\n      mload(0x40)\n      0xea8e4eb500000000000000000000000000000000000000000000000000000000\n      dup2\n      mstore\n      0x04\n      add\n      mload(0x40)\n      dup1\n      swap2\n      sub\n      swap1\n      revert\n        /* \"contracts/RevenueSharing.sol\":1052:1099  if (msg.sender != owner) revert NotAuthorized() */\n    tag_36:\n        /* \"contracts/RevenueSharing.sol\":1737:1740  100 */\n      0x64\n        /* \"contracts/RevenueSharing.sol\":1719:1734  sharePercentage */\n      dup2\n        /* \"contracts/RevenueSharing.sol\":1719:1740  sharePercentage > 100 */\n      gt\n        /* \"contracts/RevenueSharing.sol\":1715:1773  if (sharePercentage > 100) revert InvalidSharePercentage() */\n      iszero\n      tag_38\n      jumpi\n        /* \"contracts/RevenueSharing.sol\":1749:1773  InvalidSharePercentage() */\n      mload(0x40)\n      0x59b3d7b700000000000000000000000000000000000000000000000000000000\n      dup2\n      mstore\n      0x04\n      add\n      mload(0x40)\n      dup1\n      swap2\n      sub\n      swap1\n      revert\n        /* \"contracts/RevenueSharing.sol\":1715:1773  if (sharePercentage > 100) revert InvalidSharePercentage() */\n    tag_38:\n        /* \"contracts/RevenueSharing.sol\":1894:1895  0 */\n      0x00\n        /* \"contracts/RevenueSharing.sol\":1872:1878  shares */\n      0x01\n        /* \"contracts/RevenueSharing.sol\":1872:1891  shares[participant] */\n      0x00\n        /* \"contracts/RevenueSharing.sol\":1879:1890  participant */\n      dup5\n        /* \"contracts/RevenueSharing.sol\":1872:1891  shares[participant] */\n      0xffffffffffffffffffffffffffffffffffffffff\n      and\n      0xffffffffffffffffffffffffffffffffffffffff\n      and\n      dup2\n      mstore\n      0x20\n      add\n      swap1\n      dup2\n      mstore\n      0x20\n      add\n      0x00\n      keccak256\n      sload\n        /* \"contracts/RevenueSharing.sol\":1872:1895  shares[participant] > 0 */\n      gt\n        /* \"contracts/RevenueSharing.sol\":1897:1904  return; */\n      tag_37\n        /* \"contracts/RevenueSharing.sol\":1868:1904  if (shares[participant] > 0) return; */\n      jumpi\n        /* \"contracts/RevenueSharing.sol\":1991:2003  participants */\n      0x02\n        /* \"contracts/RevenueSharing.sol\":2009:2020  participant */\n      dup3\n        /* \"contracts/RevenueSharing.sol\":1991:2021  participants.push(participant) */\n      swap1\n      dup1\n      0x01\n      dup2\n      sload\n      add\n      dup1\n      dup3\n      sstore\n      dup1\n      swap2\n      pop\n      pop\n      0x01\n      swap1\n      sub\n      swap1\n      0x00\n      mstore\n      keccak256(0x00, 0x20)\n      add\n      0x00\n      swap1\n      swap2\n      swap1\n      swap2\n      swap1\n      swap2\n      0x0100\n      exp\n      dup2\n      sload\n      dup2\n      0xffffffffffffffffffffffffffffffffffffffff\n      mul\n      not\n      and\n      swap1\n      dup4\n      0xffffffffffffffffffffffffffffffffffffffff\n      and\n      mul\n      or\n      swap1\n      sstore\n      pop\n        /* \"contracts/RevenueSharing.sol\":2053:2068  sharePercentage */\n      dup1\n        /* \"contracts/RevenueSharing.sol\":2031:2037  shares */\n      0x01\n        /* \"contracts/RevenueSharing.sol\":2031:2050  shares[participant] */\n      0x00\n        /* \"contracts/RevenueSharing.sol\":2038:2049  participant */\n      dup5\n        /* \"contracts/RevenueSharing.sol\":2031:2050  shares[participant] */\n      0xffffffffffffffffffffffffffffffffffffffff\n      and\n      0xffffffffffffffffffffffffffffffffffffffff\n      and\n      dup2\n      mstore\n      0x20\n      add\n      swap1\n      dup2\n      mstore\n      0x20\n      add\n      0x00\n      keccak256\n        /* \"contracts/RevenueSharing.sol\":2031:2068  shares[participant] = sharePercentage */\n      dup2\n      swap1\n      sstore\n      pop\n        /* \"contracts/RevenueSharing.sol\":1138:1139  _ */\n    tag_37:\n        /* \"contracts/RevenueSharing.sol\":1549:2075  function addParticipant(address participant, uint256 sharePercentage) public onlyOwner {... */\n      pop\n      pop\n      jump\t// out\n        /* \"contracts/RevenueSharing.sol\":2384:3068  function distributeRevenue() public payable onlyOwner {... */\n    tag_16:\n        /* \"contracts/RevenueSharing.sol\":1070:1075  owner */\n      0x00\n      0x00\n      swap1\n      sload\n      swap1\n      0x0100\n      exp\n      swap1\n      div\n      0xffffffffffffffffffffffffffffffffffffffff\n      and\n        /* \"contracts/RevenueSharing.sol\":1056:1075  msg.sender != owner */\n      0xffffffffffffffffffffffffffffffffffffffff\n      and\n        /* \"contracts/RevenueSharing.sol\":1056:1066  msg.sender */\n      caller\n        /* \"contracts/RevenueSharing.sol\":1056:1075  msg.sender != owner */\n      0xffffffffffffffffffffffffffffffffffffffff\n      and\n      eq\n        /* \"contracts/RevenueSharing.sol\":1052:1099  if (msg.sender != owner) revert NotAuthorized() */\n      tag_42\n      jumpi\n        /* \"contracts/RevenueSharing.sol\":1084:1099  NotAuthorized() */\n      mload(0x40)\n      0xea8e4eb500000000000000000000000000000000000000000000000000000000\n      dup2\n      mstore\n      0x04\n      add\n      mload(0x40)\n      dup1\n      swap2\n      sub\n      swap1\n      revert\n        /* \"contracts/RevenueSharing.sol\":1052:1099  if (msg.sender != owner) revert NotAuthorized() */\n    tag_42:\n        /* \"contracts/RevenueSharing.sol\":2448:2467  uint256 totalShares */\n      0x00\n        /* \"contracts/RevenueSharing.sol\":2470:2471  0 */\n      0x00\n        /* \"contracts/RevenueSharing.sol\":2448:2471  uint256 totalShares = 0 */\n      swap1\n      pop\n        /* \"contracts/RevenueSharing.sol\":2550:2559  uint256 i */\n      0x00\n        /* \"contracts/RevenueSharing.sol\":2562:2563  0 */\n      0x00\n        /* \"contracts/RevenueSharing.sol\":2550:2563  uint256 i = 0 */\n      swap1\n      pop\n        /* \"contracts/RevenueSharing.sol\":2545:2658  for (uint256 i = 0; i < participants.length; i++) {... */\n    tag_44:\n        /* \"contracts/RevenueSharing.sol\":2569:2581  participants */\n      0x02\n        /* \"contracts/RevenueSharing.sol\":2569:2588  participants.length */\n      dup1\n      sload\n      swap1\n      pop\n        /* \"contracts/RevenueSharing.sol\":2565:2566  i */\n      dup2\n        /* \"contracts/RevenueSharing.sol\":2565:2588  i < participants.length */\n      lt\n        /* \"contracts/RevenueSharing.sol\":2545:2658  for (uint256 i = 0; i < participants.length; i++) {... */\n      iszero\n      tag_45\n      jumpi\n        /* \"contracts/RevenueSharing.sol\":2624:2630  shares */\n      0x01\n        /* \"contracts/RevenueSharing.sol\":2624:2647  shares[participants[i]] */\n      0x00\n        /* \"contracts/RevenueSharing.sol\":2631:2643  participants */\n      0x02\n        /* \"contracts/RevenueSharing.sol\":2644:2645  i */\n      dup4\n        /* \"contracts/RevenueSharing.sol\":2631:2646  participants[i] */\n      dup2\n      sload\n      dup2\n      lt\n      tag_47\n      jumpi\n      tag_48\n      tag_49\n      jump\t// in\n    tag_48:\n    tag_47:\n      swap1\n      0x00\n      mstore\n      keccak256(0x00, 0x20)\n      add\n      0x00\n      swap1\n      sload\n      swap1\n      0x0100\n      exp\n      swap1\n      div\n      0xffffffffffffffffffffffffffffffffffffffff\n      and\n        /* \"contracts/RevenueSharing.sol\":2624:2647  shares[participants[i]] */\n      0xffffffffffffffffffffffffffffffffffffffff\n      and\n      0xffffffffffffffffffffffffffffffffffffffff\n      and\n      dup2\n      mstore\n      0x20\n      add\n      swap1\n      dup2\n      mstore\n      0x20\n      add\n      0x00\n      keccak256\n      sload\n        /* \"contracts/RevenueSharing.sol\":2609:2647  totalShares += shares[participants[i]] */\n      dup3\n      tag_51\n      swap2\n      swap1\n      tag_52\n      jump\t// in\n    tag_51:\n      swap2\n      pop\n        /* \"contracts/RevenueSharing.sol\":2590:2593  i++ */\n      dup1\n      dup1\n      0x01\n      add\n      swap2\n      pop\n      pop\n        /* \"contracts/RevenueSharing.sol\":2545:2658  for (uint256 i = 0; i < participants.length; i++) {... */\n      jump(tag_44)\n    tag_45:\n      pop\n        /* \"contracts/RevenueSharing.sol\":2741:2744  100 */\n      0x64\n        /* \"contracts/RevenueSharing.sol\":2726:2737  totalShares */\n      dup2\n        /* \"contracts/RevenueSharing.sol\":2726:2744  totalShares != 100 */\n      eq\n        /* \"contracts/RevenueSharing.sol\":2722:2773  if (totalShares != 100) revert InvalidTotalShares() */\n      tag_53\n      jumpi\n        /* \"contracts/RevenueSharing.sol\":2753:2773  InvalidTotalShares() */\n      mload(0x40)\n      0x3a7be37b00000000000000000000000000000000000000000000000000000000\n      dup2\n      mstore\n      0x04\n      add\n      mload(0x40)\n      dup1\n      swap2\n      sub\n      swap1\n      revert\n        /* \"contracts/RevenueSharing.sol\":2722:2773  if (totalShares != 100) revert InvalidTotalShares() */\n    tag_53:\n        /* \"contracts/RevenueSharing.sol\":2875:2884  uint256 i */\n      0x00\n        /* \"contracts/RevenueSharing.sol\":2887:2888  0 */\n      0x00\n        /* \"contracts/RevenueSharing.sol\":2875:2888  uint256 i = 0 */\n      swap1\n      pop\n        /* \"contracts/RevenueSharing.sol\":2870:3062  for (uint256 i = 0; i < participants.length; i++) {... */\n    tag_54:\n        /* \"contracts/RevenueSharing.sol\":2894:2906  participants */\n      0x02\n        /* \"contracts/RevenueSharing.sol\":2894:2913  participants.length */\n      dup1\n      sload\n      swap1\n      pop\n        /* \"contracts/RevenueSharing.sol\":2890:2891  i */\n      dup2\n        /* \"contracts/RevenueSharing.sol\":2890:2913  i < participants.length */\n      lt\n        /* \"contracts/RevenueSharing.sol\":2870:3062  for (uint256 i = 0; i < participants.length; i++) {... */\n      iszero\n      tag_55\n      jumpi\n        /* \"contracts/RevenueSharing.sol\":2934:2949  uint256 payment */\n      0x00\n        /* \"contracts/RevenueSharing.sol\":2992:2995  100 */\n      0x64\n        /* \"contracts/RevenueSharing.sol\":2965:2971  shares */\n      0x01\n        /* \"contracts/RevenueSharing.sol\":2965:2988  shares[participants[i]] */\n      0x00\n        /* \"contracts/RevenueSharing.sol\":2972:2984  participants */\n      0x02\n        /* \"contracts/RevenueSharing.sol\":2985:2986  i */\n      dup6\n        /* \"contracts/RevenueSharing.sol\":2972:2987  participants[i] */\n      dup2\n      sload\n      dup2\n      lt\n      tag_57\n      jumpi\n      tag_58\n      tag_49\n      jump\t// in\n    tag_58:\n    tag_57:\n      swap1\n      0x00\n      mstore\n      keccak256(0x00, 0x20)\n      add\n      0x00\n      swap1\n      sload\n      swap1\n      0x0100\n      exp\n      swap1\n      div\n      0xffffffffffffffffffffffffffffffffffffffff\n      and\n        /* \"contracts/RevenueSharing.sol\":2965:2988  shares[participants[i]] */\n      0xffffffffffffffffffffffffffffffffffffffff\n      and\n      0xffffffffffffffffffffffffffffffffffffffff\n      and\n      dup2\n      mstore\n      0x20\n      add\n      swap1\n      dup2\n      mstore\n      0x20\n      add\n      0x00\n      keccak256\n      sload\n        /* \"contracts/RevenueSharing.sol\":2953:2962  msg.value */\n      callvalue\n        /* \"contracts/RevenueSharing.sol\":2953:2988  msg.value * shares[participants[i]] */\n      tag_60\n      swap2\n      swap1\n      tag_61\n      jump\t// in\n    tag_60:\n        /* \"contracts/RevenueSharing.sol\":2952:2995  (msg.value * shares[participants[i]]) / 100 */\n      tag_62\n      swap2\n      swap1\n      tag_63\n      jump\t// in\n    tag_62:\n        /* \"contracts/RevenueSharing.sol\":2934:2995  uint256 payment = (msg.value * shares[participants[i]]) / 100 */\n      swap1\n      pop\n        /* \"contracts/RevenueSharing.sol\":3017:3029  participants */\n      0x02\n        /* \"contracts/RevenueSharing.sol\":3030:3031  i */\n      dup3\n        /* \"contracts/RevenueSharing.sol\":3017:3032  participants[i] */\n      dup2\n      sload\n      dup2\n      lt\n      tag_64\n      jumpi\n      tag_65\n      tag_49\n      jump\t// in\n    tag_65:\n    tag_64:\n      swap1\n      0x00\n      mstore\n      keccak256(0x00, 0x20)\n      add\n      0x00\n      swap1\n      sload\n      swap1\n      0x0100\n      exp\n      swap1\n      div\n      0xffffffffffffffffffffffffffffffffffffffff\n      and\n        /* \"contracts/RevenueSharing.sol\":3009:3042  payable(participants[i]).transfer */\n      0xffffffffffffffffffffffffffffffffffffffff\n      and\n        /* \"contracts/RevenueSharing.sol\":3009:3051  payable(participants[i]).transfer(payment) */\n      0x08fc\n        /* \"contracts/RevenueSharing.sol\":3043:3050  payment */\n      dup3\n        /* \"contracts/RevenueSharing.sol\":3009:3051  payable(participants[i]).transfer(payment) */\n      swap1\n      dup2\n      iszero\n      mul\n      swap1\n      mload(0x40)\n      0x00\n      mload(0x40)\n      dup1\n      dup4\n      sub\n      dup2\n      dup6\n      dup9\n      dup9\n      call\n      swap4\n      pop\n      pop\n      pop\n      pop\n      iszero\n      dup1\n      iszero\n      tag_68\n      jumpi\n      returndatacopy(0x00, 0x00, returndatasize)\n      revert(0x00, returndatasize)\n    tag_68:\n      pop\n        /* \"contracts/RevenueSharing.sol\":2920:3062  {... */\n      pop\n        /* \"contracts/RevenueSharing.sol\":2915:2918  i++ */\n      dup1\n      dup1\n      0x01\n      add\n      swap2\n      pop\n      pop\n        /* \"contracts/RevenueSharing.sol\":2870:3062  for (uint256 i = 0; i < participants.length; i++) {... */\n      jump(tag_54)\n    tag_55:\n      pop\n        /* \"contracts/RevenueSharing.sol\":2438:3068  {... */\n      pop\n        /* \"contracts/RevenueSharing.sol\":2384:3068  function distributeRevenue() public payable onlyOwner {... */\n      jump\t// out\n        /* \"contracts/RevenueSharing.sol\":771:800  address[] public participants */\n    tag_21:\n      0x02\n      dup2\n      dup2\n      sload\n      dup2\n      lt\n      tag_69\n      jumpi\n      0x00\n      dup1\n      revert\n    tag_69:\n      swap1\n      0x00\n      mstore\n      keccak256(0x00, 0x20)\n      add\n      0x00\n      swap2\n      pop\n      sload\n      swap1\n      0x0100\n      exp\n      swap1\n      div\n      0xffffffffffffffffffffffffffffffffffffffff\n      and\n      dup2\n      jump\t// out\n        /* \"contracts/RevenueSharing.sol\":581:601  address public owner */\n    tag_26:\n      0x00\n      0x00\n      swap1\n      sload\n      swap1\n      0x0100\n      exp\n      swap1\n      div\n      0xffffffffffffffffffffffffffffffffffffffff\n      and\n      dup2\n      jump\t// out\n        /* \"contracts/RevenueSharing.sol\":673:714  mapping(address => uint256) public shares */\n    tag_32:\n      mstore(0x20, 0x01)\n      dup1\n      0x00\n      mstore\n      keccak256(0x00, 0x40)\n      0x00\n      swap2\n      pop\n      swap1\n      pop\n      sload\n      dup2\n      jump\t// out\n        /* \"#utility.yul\":88:205   */\n    tag_72:\n        /* \"#utility.yul\":197:198   */\n      0x00\n        /* \"#utility.yul\":194:195   */\n      0x00\n        /* \"#utility.yul\":187:199   */\n      revert\n        /* \"#utility.yul\":334:460   */\n    tag_74:\n        /* \"#utility.yul\":371:378   */\n      0x00\n        /* \"#utility.yul\":411:453   */\n      0xffffffffffffffffffffffffffffffffffffffff\n        /* \"#utility.yul\":404:409   */\n      dup3\n        /* \"#utility.yul\":400:454   */\n      and\n        /* \"#utility.yul\":389:454   */\n      swap1\n      pop\n        /* \"#utility.yul\":334:460   */\n      swap2\n      swap1\n      pop\n      jump\t// out\n        /* \"#utility.yul\":466:562   */\n    tag_75:\n        /* \"#utility.yul\":503:510   */\n      0x00\n        /* \"#utility.yul\":532:556   */\n      tag_91\n        /* \"#utility.yul\":550:555   */\n      dup3\n        /* \"#utility.yul\":532:556   */\n      tag_74\n      jump\t// in\n    tag_91:\n        /* \"#utility.yul\":521:556   */\n      swap1\n      pop\n        /* \"#utility.yul\":466:562   */\n      swap2\n      swap1\n      pop\n      jump\t// out\n        /* \"#utility.yul\":568:690   */\n    tag_76:\n        /* \"#utility.yul\":641:665   */\n      tag_93\n        /* \"#utility.yul\":659:664   */\n      dup2\n        /* \"#utility.yul\":641:665   */\n      tag_75\n      jump\t// in\n    tag_93:\n        /* \"#utility.yul\":634:639   */\n      dup2\n        /* \"#utility.yul\":631:666   */\n      eq\n        /* \"#utility.yul\":621:684   */\n      tag_94\n      jumpi\n        /* \"#utility.yul\":680:681   */\n      0x00\n        /* \"#utility.yul\":677:678   */\n      0x00\n        /* \"#utility.yul\":670:682   */\n      revert\n        /* \"#utility.yul\":621:684   */\n    tag_94:\n        /* \"#utility.yul\":568:690   */\n      pop\n      jump\t// out\n        /* \"#utility.yul\":696:835   */\n    tag_77:\n        /* \"#utility.yul\":742:747   */\n      0x00\n        /* \"#utility.yul\":780:786   */\n      dup2\n        /* \"#utility.yul\":767:787   */\n      calldataload\n        /* \"#utility.yul\":758:787   */\n      swap1\n      pop\n        /* \"#utility.yul\":796:829   */\n      tag_96\n        /* \"#utility.yul\":823:828   */\n      dup2\n        /* \"#utility.yul\":796:829   */\n      tag_76\n      jump\t// in\n    tag_96:\n        /* \"#utility.yul\":696:835   */\n      swap3\n      swap2\n      pop\n      pop\n      jump\t// out\n        /* \"#utility.yul\":841:918   */\n    tag_78:\n        /* \"#utility.yul\":878:885   */\n      0x00\n        /* \"#utility.yul\":907:912   */\n      dup2\n        /* \"#utility.yul\":896:912   */\n      swap1\n      pop\n        /* \"#utility.yul\":841:918   */\n      swap2\n      swap1\n      pop\n      jump\t// out\n        /* \"#utility.yul\":924:1046   */\n    tag_79:\n        /* \"#utility.yul\":997:1021   */\n      tag_99\n        /* \"#utility.yul\":1015:1020   */\n      dup2\n        /* \"#utility.yul\":997:1021   */\n      tag_78\n      jump\t// in\n    tag_99:\n        /* \"#utility.yul\":990:995   */\n      dup2\n        /* \"#utility.yul\":987:1022   */\n      eq\n        /* \"#utility.yul\":977:1040   */\n      tag_100\n      jumpi\n        /* \"#utility.yul\":1036:1037   */\n      0x00\n        /* \"#utility.yul\":1033:1034   */\n      0x00\n        /* \"#utility.yul\":1026:1038   */\n      revert\n        /* \"#utility.yul\":977:1040   */\n    tag_100:\n        /* \"#utility.yul\":924:1046   */\n      pop\n      jump\t// out\n        /* \"#utility.yul\":1052:1191   */\n    tag_80:\n        /* \"#utility.yul\":1098:1103   */\n      0x00\n        /* \"#utility.yul\":1136:1142   */\n      dup2\n        /* \"#utility.yul\":1123:1143   */\n      calldataload\n        /* \"#utility.yul\":1114:1143   */\n      swap1\n      pop\n        /* \"#utility.yul\":1152:1185   */\n      tag_102\n        /* \"#utility.yul\":1179:1184   */\n      dup2\n        /* \"#utility.yul\":1152:1185   */\n      tag_79\n      jump\t// in\n    tag_102:\n        /* \"#utility.yul\":1052:1191   */\n      swap3\n      swap2\n      pop\n      pop\n      jump\t// out\n        /* \"#utility.yul\":1197:1671   */\n    tag_13:\n        /* \"#utility.yul\":1265:1271   */\n      0x00\n        /* \"#utility.yul\":1273:1279   */\n      0x00\n        /* \"#utility.yul\":1322:1324   */\n      0x40\n        /* \"#utility.yul\":1310:1319   */\n      dup4\n        /* \"#utility.yul\":1301:1308   */\n      dup6\n        /* \"#utility.yul\":1297:1320   */\n      sub\n        /* \"#utility.yul\":1293:1325   */\n      slt\n        /* \"#utility.yul\":1290:1409   */\n      iszero\n      tag_104\n      jumpi\n        /* \"#utility.yul\":1328:1407   */\n      tag_105\n      tag_72\n      jump\t// in\n    tag_105:\n        /* \"#utility.yul\":1290:1409   */\n    tag_104:\n        /* \"#utility.yul\":1448:1449   */\n      0x00\n        /* \"#utility.yul\":1473:1526   */\n      tag_106\n        /* \"#utility.yul\":1518:1525   */\n      dup6\n        /* \"#utility.yul\":1509:1515   */\n      dup3\n        /* \"#utility.yul\":1498:1507   */\n      dup7\n        /* \"#utility.yul\":1494:1516   */\n      add\n        /* \"#utility.yul\":1473:1526   */\n      tag_77\n      jump\t// in\n    tag_106:\n        /* \"#utility.yul\":1463:1526   */\n      swap3\n      pop\n        /* \"#utility.yul\":1419:1536   */\n      pop\n        /* \"#utility.yul\":1575:1577   */\n      0x20\n        /* \"#utility.yul\":1601:1654   */\n      tag_107\n        /* \"#utility.yul\":1646:1653   */\n      dup6\n        /* \"#utility.yul\":1637:1643   */\n      dup3\n        /* \"#utility.yul\":1626:1635   */\n      dup7\n        /* \"#utility.yul\":1622:1644   */\n      add\n        /* \"#utility.yul\":1601:1654   */\n      tag_80\n      jump\t// in\n    tag_107:\n        /* \"#utility.yul\":1591:1654   */\n      swap2\n      pop\n        /* \"#utility.yul\":1546:1664   */\n      pop\n        /* \"#utility.yul\":1197:1671   */\n      swap3\n      pop\n      swap3\n      swap1\n      pop\n      jump\t// out\n        /* \"#utility.yul\":1677:2006   */\n    tag_20:\n        /* \"#utility.yul\":1736:1742   */\n      0x00\n        /* \"#utility.yul\":1785:1787   */\n      0x20\n        /* \"#utility.yul\":1773:1782   */\n      dup3\n        /* \"#utility.yul\":1764:1771   */\n      dup5\n        /* \"#utility.yul\":1760:1783   */\n      sub\n        /* \"#utility.yul\":1756:1788   */\n      slt\n        /* \"#utility.yul\":1753:1872   */\n      iszero\n      tag_109\n      jumpi\n        /* \"#utility.yul\":1791:1870   */\n      tag_110\n      tag_72\n      jump\t// in\n    tag_110:\n        /* \"#utility.yul\":1753:1872   */\n    tag_109:\n        /* \"#utility.yul\":1911:1912   */\n      0x00\n        /* \"#utility.yul\":1936:1989   */\n      tag_111\n        /* \"#utility.yul\":1981:1988   */\n      dup5\n        /* \"#utility.yul\":1972:1978   */\n      dup3\n        /* \"#utility.yul\":1961:1970   */\n      dup6\n        /* \"#utility.yul\":1957:1979   */\n      add\n        /* \"#utility.yul\":1936:1989   */\n      tag_80\n      jump\t// in\n    tag_111:\n        /* \"#utility.yul\":1926:1989   */\n      swap2\n      pop\n        /* \"#utility.yul\":1882:1999   */\n      pop\n        /* \"#utility.yul\":1677:2006   */\n      swap3\n      swap2\n      pop\n      pop\n      jump\t// out\n        /* \"#utility.yul\":2012:2130   */\n    tag_81:\n        /* \"#utility.yul\":2099:2123   */\n      tag_113\n        /* \"#utility.yul\":2117:2122   */\n      dup2\n        /* \"#utility.yul\":2099:2123   */\n      tag_75\n      jump\t// in\n    tag_113:\n        /* \"#utility.yul\":2094:2097   */\n      dup3\n        /* \"#utility.yul\":2087:2124   */\n      mstore\n        /* \"#utility.yul\":2012:2130   */\n      pop\n      pop\n      jump\t// out\n        /* \"#utility.yul\":2136:2358   */\n    tag_23:\n        /* \"#utility.yul\":2229:2233   */\n      0x00\n        /* \"#utility.yul\":2267:2269   */\n      0x20\n        /* \"#utility.yul\":2256:2265   */\n      dup3\n        /* \"#utility.yul\":2252:2270   */\n      add\n        /* \"#utility.yul\":2244:2270   */\n      swap1\n      pop\n        /* \"#utility.yul\":2280:2351   */\n      tag_115\n        /* \"#utility.yul\":2348:2349   */\n      0x00\n        /* \"#utility.yul\":2337:2346   */\n      dup4\n        /* \"#utility.yul\":2333:2350   */\n      add\n        /* \"#utility.yul\":2324:2330   */\n      dup5\n        /* \"#utility.yul\":2280:2351   */\n      tag_81\n      jump\t// in\n    tag_115:\n        /* \"#utility.yul\":2136:2358   */\n      swap3\n      swap2\n      pop\n      pop\n      jump\t// out\n        /* \"#utility.yul\":2364:2693   */\n    tag_31:\n        /* \"#utility.yul\":2423:2429   */\n      0x00\n        /* \"#utility.yul\":2472:2474   */\n      0x20\n        /* \"#utility.yul\":2460:2469   */\n      dup3\n        /* \"#utility.yul\":2451:2458   */\n      dup5\n        /* \"#utility.yul\":2447:2470   */\n      sub\n        /* \"#utility.yul\":2443:2475   */\n      slt\n        /* \"#utility.yul\":2440:2559   */\n      iszero\n      tag_117\n      jumpi\n        /* \"#utility.yul\":2478:2557   */\n      tag_118\n      tag_72\n      jump\t// in\n    tag_118:\n        /* \"#utility.yul\":2440:2559   */\n    tag_117:\n        /* \"#utility.yul\":2598:2599   */\n      0x00\n        /* \"#utility.yul\":2623:2676   */\n      tag_119\n        /* \"#utility.yul\":2668:2675   */\n      dup5\n        /* \"#utility.yul\":2659:2665   */\n      dup3\n        /* \"#utility.yul\":2648:2657   */\n      dup6\n        /* \"#utility.yul\":2644:2666   */\n      add\n        /* \"#utility.yul\":2623:2676   */\n      tag_77\n      jump\t// in\n    tag_119:\n        /* \"#utility.yul\":2613:2676   */\n      swap2\n      pop\n        /* \"#utility.yul\":2569:2686   */\n      pop\n        /* \"#utility.yul\":2364:2693   */\n      swap3\n      swap2\n      pop\n      pop\n      jump\t// out\n        /* \"#utility.yul\":2699:2817   */\n    tag_82:\n        /* \"#utility.yul\":2786:2810   */\n      tag_121\n        /* \"#utility.yul\":2804:2809   */\n      dup2\n        /* \"#utility.yul\":2786:2810   */\n      tag_78\n      jump\t// in\n    tag_121:\n        /* \"#utility.yul\":2781:2784   */\n      dup3\n        /* \"#utility.yul\":2774:2811   */\n      mstore\n        /* \"#utility.yul\":2699:2817   */\n      pop\n      pop\n      jump\t// out\n        /* \"#utility.yul\":2823:3045   */\n    tag_34:\n        /* \"#utility.yul\":2916:2920   */\n      0x00\n        /* \"#utility.yul\":2954:2956   */\n      0x20\n        /* \"#utility.yul\":2943:2952   */\n      dup3\n        /* \"#utility.yul\":2939:2957   */\n      add\n        /* \"#utility.yul\":2931:2957   */\n      swap1\n      pop\n        /* \"#utility.yul\":2967:3038   */\n      tag_123\n        /* \"#utility.yul\":3035:3036   */\n      0x00\n        /* \"#utility.yul\":3024:3033   */\n      dup4\n        /* \"#utility.yul\":3020:3037   */\n      add\n        /* \"#utility.yul\":3011:3017   */\n      dup5\n        /* \"#utility.yul\":2967:3038   */\n      tag_82\n      jump\t// in\n    tag_123:\n        /* \"#utility.yul\":2823:3045   */\n      swap3\n      swap2\n      pop\n      pop\n      jump\t// out\n        /* \"#utility.yul\":3051:3231   */\n    tag_49:\n        /* \"#utility.yul\":3099:3176   */\n      0x4e487b7100000000000000000000000000000000000000000000000000000000\n        /* \"#utility.yul\":3096:3097   */\n      0x00\n        /* \"#utility.yul\":3089:3177   */\n      mstore\n        /* \"#utility.yul\":3196:3200   */\n      0x32\n        /* \"#utility.yul\":3193:3194   */\n      0x04\n        /* \"#utility.yul\":3186:3201   */\n      mstore\n        /* \"#utility.yul\":3220:3224   */\n      0x24\n        /* \"#utility.yul\":3217:3218   */\n      0x00\n        /* \"#utility.yul\":3210:3225   */\n      revert\n        /* \"#utility.yul\":3237:3417   */\n    tag_83:\n        /* \"#utility.yul\":3285:3362   */\n      0x4e487b7100000000000000000000000000000000000000000000000000000000\n        /* \"#utility.yul\":3282:3283   */\n      0x00\n        /* \"#utility.yul\":3275:3363   */\n      mstore\n        /* \"#utility.yul\":3382:3386   */\n      0x11\n        /* \"#utility.yul\":3379:3380   */\n      0x04\n        /* \"#utility.yul\":3372:3387   */\n      mstore\n        /* \"#utility.yul\":3406:3410   */\n      0x24\n        /* \"#utility.yul\":3403:3404   */\n      0x00\n        /* \"#utility.yul\":3396:3411   */\n      revert\n        /* \"#utility.yul\":3423:3614   */\n    tag_52:\n        /* \"#utility.yul\":3463:3466   */\n      0x00\n        /* \"#utility.yul\":3482:3502   */\n      tag_127\n        /* \"#utility.yul\":3500:3501   */\n      dup3\n        /* \"#utility.yul\":3482:3502   */\n      tag_78\n      jump\t// in\n    tag_127:\n        /* \"#utility.yul\":3477:3502   */\n      swap2\n      pop\n        /* \"#utility.yul\":3516:3536   */\n      tag_128\n        /* \"#utility.yul\":3534:3535   */\n      dup4\n        /* \"#utility.yul\":3516:3536   */\n      tag_78\n      jump\t// in\n    tag_128:\n        /* \"#utility.yul\":3511:3536   */\n      swap3\n      pop\n        /* \"#utility.yul\":3559:3560   */\n      dup3\n        /* \"#utility.yul\":3556:3557   */\n      dup3\n        /* \"#utility.yul\":3552:3561   */\n      add\n        /* \"#utility.yul\":3545:3561   */\n      swap1\n      pop\n        /* \"#utility.yul\":3580:3583   */\n      dup1\n        /* \"#utility.yul\":3577:3578   */\n      dup3\n        /* \"#utility.yul\":3574:3584   */\n      gt\n        /* \"#utility.yul\":3571:3607   */\n      iszero\n      tag_129\n      jumpi\n        /* \"#utility.yul\":3587:3605   */\n      tag_130\n      tag_83\n      jump\t// in\n    tag_130:\n        /* \"#utility.yul\":3571:3607   */\n    tag_129:\n        /* \"#utility.yul\":3423:3614   */\n      swap3\n      swap2\n      pop\n      pop\n      jump\t// out\n        /* \"#utility.yul\":3620:4030   */\n    tag_61:\n        /* \"#utility.yul\":3660:3667   */\n      0x00\n        /* \"#utility.yul\":3683:3703   */\n      tag_132\n        /* \"#utility.yul\":3701:3702   */\n      dup3\n        /* \"#utility.yul\":3683:3703   */\n      tag_78\n      jump\t// in\n    tag_132:\n        /* \"#utility.yul\":3678:3703   */\n      swap2\n      pop\n        /* \"#utility.yul\":3717:3737   */\n      tag_133\n        /* \"#utility.yul\":3735:3736   */\n      dup4\n        /* \"#utility.yul\":3717:3737   */\n      tag_78\n      jump\t// in\n    tag_133:\n        /* \"#utility.yul\":3712:3737   */\n      swap3\n      pop\n        /* \"#utility.yul\":3772:3773   */\n      dup3\n        /* \"#utility.yul\":3769:3770   */\n      dup3\n        /* \"#utility.yul\":3765:3774   */\n      mul\n        /* \"#utility.yul\":3794:3824   */\n      tag_134\n        /* \"#utility.yul\":3812:3823   */\n      dup2\n        /* \"#utility.yul\":3794:3824   */\n      tag_78\n      jump\t// in\n    tag_134:\n        /* \"#utility.yul\":3783:3824   */\n      swap2\n      pop\n        /* \"#utility.yul\":3973:3974   */\n      dup3\n        /* \"#utility.yul\":3964:3971   */\n      dup3\n        /* \"#utility.yul\":3960:3975   */\n      div\n        /* \"#utility.yul\":3957:3958   */\n      dup5\n        /* \"#utility.yul\":3954:3976   */\n      eq\n        /* \"#utility.yul\":3934:3935   */\n      dup4\n        /* \"#utility.yul\":3927:3936   */\n      iszero\n        /* \"#utility.yul\":3907:3990   */\n      or\n        /* \"#utility.yul\":3884:4023   */\n      tag_135\n      jumpi\n        /* \"#utility.yul\":4003:4021   */\n      tag_136\n      tag_83\n      jump\t// in\n    tag_136:\n        /* \"#utility.yul\":3884:4023   */\n    tag_135:\n        /* \"#utility.yul\":3668:4030   */\n      pop\n        /* \"#utility.yul\":3620:4030   */\n      swap3\n      swap2\n      pop\n      pop\n      jump\t// out\n        /* \"#utility.yul\":4036:4216   */\n    tag_84:\n        /* \"#utility.yul\":4084:4161   */\n      0x4e487b7100000000000000000000000000000000000000000000000000000000\n        /* \"#utility.yul\":4081:4082   */\n      0x00\n        /* \"#utility.yul\":4074:4162   */\n      mstore\n        /* \"#utility.yul\":4181:4185   */\n      0x12\n        /* \"#utility.yul\":4178:4179   */\n      0x04\n        /* \"#utility.yul\":4171:4186   */\n      mstore\n        /* \"#utility.yul\":4205:4209   */\n      0x24\n        /* \"#utility.yul\":4202:4203   */\n      0x00\n        /* \"#utility.yul\":4195:4210   */\n      revert\n        /* \"#utility.yul\":4222:4407   */\n    tag_63:\n        /* \"#utility.yul\":4262:4263   */\n      0x00\n        /* \"#utility.yul\":4279:4299   */\n      tag_139\n        /* \"#utility.yul\":4297:4298   */\n      dup3\n        /* \"#utility.yul\":4279:4299   */\n      tag_78\n      jump\t// in\n    tag_139:\n        /* \"#utility.yul\":4274:4299   */\n      swap2\n      pop\n        /* \"#utility.yul\":4313:4333   */\n      tag_140\n        /* \"#utility.yul\":4331:4332   */\n      dup4\n        /* \"#utility.yul\":4313:4333   */\n      tag_78\n      jump\t// in\n    tag_140:\n        /* \"#utility.yul\":4308:4333   */\n      swap3\n      pop\n        /* \"#utility.yul\":4352:4353   */\n      dup3\n        /* \"#utility.yul\":4342:4377   */\n      tag_141\n      jumpi\n        /* \"#utility.yul\":4357:4375   */\n      tag_142\n      tag_84\n      jump\t// in\n    tag_142:\n        /* \"#utility.yul\":4342:4377   */\n    tag_141:\n        /* \"#utility.yul\":4399:4400   */\n      dup3\n        /* \"#utility.yul\":4396:4397   */\n      dup3\n        /* \"#utility.yul\":4392:4401   */\n      div\n        /* \"#utility.yul\":4387:4401   */\n      swap1\n      pop\n        /* \"#utility.yul\":4222:4407   */\n      swap3\n      swap2\n      pop\n      pop\n      jump\t// out\n\n    auxdata: 0xa26469706673582212200111a8acd792f9c4a63ff2d558f233a614fb8df8883ca28a4d9e6f8a855a793f64736f6c634300081c0033\n}\n",
				"bytecode": {
					"linkReferences": {},
					"object": "6080604052348015600e575f5ffd5b50335f5f6101000a81548173ffffffffffffffffffffffffffffffffffffffff021916908373ffffffffffffffffffffffffffffffffffffffff1602179055506108c08061005b5f395ff3fe60806040526004361061004d575f3560e01c806301e7fefe146100585780632d07953a1461008057806335c1d3491461008a5780638da5cb5b146100c6578063ce7c2ac2146100f057610054565b3661005457005b5f5ffd5b348015610063575f5ffd5b5061007e6004803603810190610079919061067b565b61012c565b005b6100886102d7565b005b348015610095575f5ffd5b506100b060048036038101906100ab91906106b9565b610576565b6040516100bd91906106f3565b60405180910390f35b3480156100d1575f5ffd5b506100da6105b1565b6040516100e791906106f3565b60405180910390f35b3480156100fb575f5ffd5b506101166004803603810190610111919061070c565b6105d5565b6040516101239190610746565b60405180910390f35b5f5f9054906101000a900473ffffffffffffffffffffffffffffffffffffffff1673ffffffffffffffffffffffffffffffffffffffff163373ffffffffffffffffffffffffffffffffffffffff16146101b1576040517fea8e4eb500000000000000000000000000000000000000000000000000000000815260040160405180910390fd5b60648111156101ec576040517f59b3d7b700000000000000000000000000000000000000000000000000000000815260040160405180910390fd5b5f60015f8473ffffffffffffffffffffffffffffffffffffffff1673ffffffffffffffffffffffffffffffffffffffff1681526020019081526020015f2054116102d357600282908060018154018082558091505060019003905f5260205f20015f9091909190916101000a81548173ffffffffffffffffffffffffffffffffffffffff021916908373ffffffffffffffffffffffffffffffffffffffff1602179055508060015f8473ffffffffffffffffffffffffffffffffffffffff1673ffffffffffffffffffffffffffffffffffffffff1681526020019081526020015f20819055505b5050565b5f5f9054906101000a900473ffffffffffffffffffffffffffffffffffffffff1673ffffffffffffffffffffffffffffffffffffffff163373ffffffffffffffffffffffffffffffffffffffff161461035c576040517fea8e4eb500000000000000000000000000000000000000000000000000000000815260040160405180910390fd5b5f5f90505f5f90505b6002805490508110156104055760015f600283815481106103895761038861075f565b5b905f5260205f20015f9054906101000a900473ffffffffffffffffffffffffffffffffffffffff1673ffffffffffffffffffffffffffffffffffffffff1673ffffffffffffffffffffffffffffffffffffffff1681526020019081526020015f2054826103f691906107b9565b91508080600101915050610365565b5060648114610440576040517f3a7be37b00000000000000000000000000000000000000000000000000000000815260040160405180910390fd5b5f5f90505b600280549050811015610572575f606460015f6002858154811061046c5761046b61075f565b5b905f5260205f20015f9054906101000a900473ffffffffffffffffffffffffffffffffffffffff1673ffffffffffffffffffffffffffffffffffffffff1673ffffffffffffffffffffffffffffffffffffffff1681526020019081526020015f2054346104d991906107ec565b6104e3919061085a565b9050600282815481106104f9576104f861075f565b5b905f5260205f20015f9054906101000a900473ffffffffffffffffffffffffffffffffffffffff1673ffffffffffffffffffffffffffffffffffffffff166108fc8290811502906040515f60405180830381858888f19350505050158015610563573d5f5f3e3d5ffd5b50508080600101915050610445565b5050565b60028181548110610585575f80fd5b905f5260205f20015f915054906101000a900473ffffffffffffffffffffffffffffffffffffffff1681565b5f5f9054906101000a900473ffffffffffffffffffffffffffffffffffffffff1681565b6001602052805f5260405f205f915090505481565b5f5ffd5b5f73ffffffffffffffffffffffffffffffffffffffff82169050919050565b5f610617826105ee565b9050919050565b6106278161060d565b8114610631575f5ffd5b50565b5f813590506106428161061e565b92915050565b5f819050919050565b61065a81610648565b8114610664575f5ffd5b50565b5f8135905061067581610651565b92915050565b5f5f60408385031215610691576106906105ea565b5b5f61069e85828601610634565b92505060206106af85828601610667565b9150509250929050565b5f602082840312156106ce576106cd6105ea565b5b5f6106db84828501610667565b91505092915050565b6106ed8161060d565b82525050565b5f6020820190506107065f8301846106e4565b92915050565b5f60208284031215610721576107206105ea565b5b5f61072e84828501610634565b91505092915050565b61074081610648565b82525050565b5f6020820190506107595f830184610737565b92915050565b7f4e487b71000000000000000000000000000000000000000000000000000000005f52603260045260245ffd5b7f4e487b71000000000000000000000000000000000000000000000000000000005f52601160045260245ffd5b5f6107c382610648565b91506107ce83610648565b92508282019050808211156107e6576107e561078c565b5b92915050565b5f6107f682610648565b915061080183610648565b925082820261080f81610648565b915082820484148315176108265761082561078c565b5b5092915050565b7f4e487b71000000000000000000000000000000000000000000000000000000005f52601260045260245ffd5b5f61086482610648565b915061086f83610648565b92508261087f5761087e61082d565b5b82820490509291505056fea26469706673582212200111a8acd792f9c4a63ff2d558f233a614fb8df8883ca28a4d9e6f8a855a793f64736f6c634300081c0033",
					"opcodes": "PUSH1 0x80 PUSH1 0x40 MSTORE CALLVALUE DUP1 ISZERO PUSH1 0xE JUMPI PUSH0 PUSH0 REVERT JUMPDEST POP CALLER PUSH0 PUSH0 PUSH2 0x100 EXP DUP2 SLOAD DUP2 PUSH20 0xFFFFFFFFFFFFFFFFFFFFFFFFFFFFFFFFFFFFFFFF MUL NOT AND SWAP1 DUP4 PUSH20 0xFFFFFFFFFFFFFFFFFFFFFFFFFFFFFFFFFFFFFFFF AND MUL OR SWAP1 SSTORE POP PUSH2 0x8C0 DUP1 PUSH2 0x5B PUSH0 CODECOPY PUSH0 RETURN INVALID PUSH1 0x80 PUSH1 0x40 MSTORE PUSH1 0x4 CALLDATASIZE LT PUSH2 0x4D JUMPI PUSH0 CALLDATALOAD PUSH1 0xE0 SHR DUP1 PUSH4 0x1E7FEFE EQ PUSH2 0x58 JUMPI DUP1 PUSH4 0x2D07953A EQ PUSH2 0x80 JUMPI DUP1 PUSH4 0x35C1D349 EQ PUSH2 0x8A JUMPI DUP1 PUSH4 0x8DA5CB5B EQ PUSH2 0xC6 JUMPI DUP1 PUSH4 0xCE7C2AC2 EQ PUSH2 0xF0 JUMPI PUSH2 0x54 JUMP JUMPDEST CALLDATASIZE PUSH2 0x54 JUMPI STOP JUMPDEST PUSH0 PUSH0 REVERT JUMPDEST CALLVALUE DUP1 ISZERO PUSH2 0x63 JUMPI PUSH0 PUSH0 REVERT JUMPDEST POP PUSH2 0x7E PUSH1 0x4 DUP1 CALLDATASIZE SUB DUP2 ADD SWAP1 PUSH2 0x79 SWAP2 SWAP1 PUSH2 0x67B JUMP JUMPDEST PUSH2 0x12C JUMP JUMPDEST STOP JUMPDEST PUSH2 0x88 PUSH2 0x2D7 JUMP JUMPDEST STOP JUMPDEST CALLVALUE DUP1 ISZERO PUSH2 0x95 JUMPI PUSH0 PUSH0 REVERT JUMPDEST POP PUSH2 0xB0 PUSH1 0x4 DUP1 CALLDATASIZE SUB DUP2 ADD SWAP1 PUSH2 0xAB SWAP2 SWAP1 PUSH2 0x6B9 JUMP JUMPDEST PUSH2 0x576 JUMP JUMPDEST PUSH1 0x40 MLOAD PUSH2 0xBD SWAP2 SWAP1 PUSH2 0x6F3 JUMP JUMPDEST PUSH1 0x40 MLOAD DUP1 SWAP2 SUB SWAP1 RETURN JUMPDEST CALLVALUE DUP1 ISZERO PUSH2 0xD1 JUMPI PUSH0 PUSH0 REVERT JUMPDEST POP PUSH2 0xDA PUSH2 0x5B1 JUMP JUMPDEST PUSH1 0x40 MLOAD PUSH2 0xE7 SWAP2 SWAP1 PUSH2 0x6F3 JUMP JUMPDEST PUSH1 0x40 MLOAD DUP1 SWAP2 SUB SWAP1 RETURN JUMPDEST CALLVALUE DUP1 ISZERO PUSH2 0xFB JUMPI PUSH0 PUSH0 REVERT JUMPDEST POP PUSH2 0x116 PUSH1 0x4 DUP1 CALLDATASIZE SUB DUP2 ADD SWAP1 PUSH2 0x111 SWAP2 SWAP1 PUSH2 0x70C JUMP JUMPDEST PUSH2 0x5D5 JUMP JUMPDEST PUSH1 0x40 MLOAD PUSH2 0x123 SWAP2 SWAP1 PUSH2 0x746 JUMP JUMPDEST PUSH1 0x40 MLOAD DUP1 SWAP2 SUB SWAP1 RETURN JUMPDEST PUSH0 PUSH0 SWAP1 SLOAD SWAP1 PUSH2 0x100 EXP SWAP1 DIV PUSH20 0xFFFFFFFFFFFFFFFFFFFFFFFFFFFFFFFFFFFFFFFF AND PUSH20 0xFFFFFFFFFFFFFFFFFFFFFFFFFFFFFFFFFFFFFFFF AND CALLER PUSH20 0xFFFFFFFFFFFFFFFFFFFFFFFFFFFFFFFFFFFFFFFF AND EQ PUSH2 0x1B1 JUMPI PUSH1 0x40 MLOAD PUSH32 0xEA8E4EB500000000000000000000000000000000000000000000000000000000 DUP2 MSTORE PUSH1 0x4 ADD PUSH1 0x40 MLOAD DUP1 SWAP2 SUB SWAP1 REVERT JUMPDEST PUSH1 0x64 DUP2 GT ISZERO PUSH2 0x1EC JUMPI PUSH1 0x40 MLOAD PUSH32 0x59B3D7B700000000000000000000000000000000000000000000000000000000 DUP2 MSTORE PUSH1 0x4 ADD PUSH1 0x40 MLOAD DUP1 SWAP2 SUB SWAP1 REVERT JUMPDEST PUSH0 PUSH1 0x1 PUSH0 DUP5 PUSH20 0xFFFFFFFFFFFFFFFFFFFFFFFFFFFFFFFFFFFFFFFF AND PUSH20 0xFFFFFFFFFFFFFFFFFFFFFFFFFFFFFFFFFFFFFFFF AND DUP2 MSTORE PUSH1 0x20 ADD SWAP1 DUP2 MSTORE PUSH1 0x20 ADD PUSH0 KECCAK256 SLOAD GT PUSH2 0x2D3 JUMPI PUSH1 0x2 DUP3 SWAP1 DUP1 PUSH1 0x1 DUP2 SLOAD ADD DUP1 DUP3 SSTORE DUP1 SWAP2 POP POP PUSH1 0x1 SWAP1 SUB SWAP1 PUSH0 MSTORE PUSH1 0x20 PUSH0 KECCAK256 ADD PUSH0 SWAP1 SWAP2 SWAP1 SWAP2 SWAP1 SWAP2 PUSH2 0x100 EXP DUP2 SLOAD DUP2 PUSH20 0xFFFFFFFFFFFFFFFFFFFFFFFFFFFFFFFFFFFFFFFF MUL NOT AND SWAP1 DUP4 PUSH20 0xFFFFFFFFFFFFFFFFFFFFFFFFFFFFFFFFFFFFFFFF AND MUL OR SWAP1 SSTORE POP DUP1 PUSH1 0x1 PUSH0 DUP5 PUSH20 0xFFFFFFFFFFFFFFFFFFFFFFFFFFFFFFFFFFFFFFFF AND PUSH20 0xFFFFFFFFFFFFFFFFFFFFFFFFFFFFFFFFFFFFFFFF AND DUP2 MSTORE PUSH1 0x20 ADD SWAP1 DUP2 MSTORE PUSH1 0x20 ADD PUSH0 KECCAK256 DUP2 SWAP1 SSTORE POP JUMPDEST POP POP JUMP JUMPDEST PUSH0 PUSH0 SWAP1 SLOAD SWAP1 PUSH2 0x100 EXP SWAP1 DIV PUSH20 0xFFFFFFFFFFFFFFFFFFFFFFFFFFFFFFFFFFFFFFFF AND PUSH20 0xFFFFFFFFFFFFFFFFFFFFFFFFFFFFFFFFFFFFFFFF AND CALLER PUSH20 0xFFFFFFFFFFFFFFFFFFFFFFFFFFFFFFFFFFFFFFFF AND EQ PUSH2 0x35C JUMPI PUSH1 0x40 MLOAD PUSH32 0xEA8E4EB500000000000000000000000000000000000000000000000000000000 DUP2 MSTORE PUSH1 0x4 ADD PUSH1 0x40 MLOAD DUP1 SWAP2 SUB SWAP1 REVERT JUMPDEST PUSH0 PUSH0 SWAP1 POP PUSH0 PUSH0 SWAP1 POP JUMPDEST PUSH1 0x2 DUP1 SLOAD SWAP1 POP DUP2 LT ISZERO PUSH2 0x405 JUMPI PUSH1 0x1 PUSH0 PUSH1 0x2 DUP4 DUP2 SLOAD DUP2 LT PUSH2 0x389 JUMPI PUSH2 0x388 PUSH2 0x75F JUMP JUMPDEST JUMPDEST SWAP1 PUSH0 MSTORE PUSH1 0x20 PUSH0 KECCAK256 ADD PUSH0 SWAP1 SLOAD SWAP1 PUSH2 0x100 EXP SWAP1 DIV PUSH20 0xFFFFFFFFFFFFFFFFFFFFFFFFFFFFFFFFFFFFFFFF AND PUSH20 0xFFFFFFFFFFFFFFFFFFFFFFFFFFFFFFFFFFFFFFFF AND PUSH20 0xFFFFFFFFFFFFFFFFFFFFFFFFFFFFFFFFFFFFFFFF AND DUP2 MSTORE PUSH1 0x20 ADD SWAP1 DUP2 MSTORE PUSH1 0x20 ADD PUSH0 KECCAK256 SLOAD DUP3 PUSH2 0x3F6 SWAP2 SWAP1 PUSH2 0x7B9 JUMP JUMPDEST SWAP2 POP DUP1 DUP1 PUSH1 0x1 ADD SWAP2 POP POP PUSH2 0x365 JUMP JUMPDEST POP PUSH1 0x64 DUP2 EQ PUSH2 0x440 JUMPI PUSH1 0x40 MLOAD PUSH32 0x3A7BE37B00000000000000000000000000000000000000000000000000000000 DUP2 MSTORE PUSH1 0x4 ADD PUSH1 0x40 MLOAD DUP1 SWAP2 SUB SWAP1 REVERT JUMPDEST PUSH0 PUSH0 SWAP1 POP JUMPDEST PUSH1 0x2 DUP1 SLOAD SWAP1 POP DUP2 LT ISZERO PUSH2 0x572 JUMPI PUSH0 PUSH1 0x64 PUSH1 0x1 PUSH0 PUSH1 0x2 DUP6 DUP2 SLOAD DUP2 LT PUSH2 0x46C JUMPI PUSH2 0x46B PUSH2 0x75F JUMP JUMPDEST JUMPDEST SWAP1 PUSH0 MSTORE PUSH1 0x20 PUSH0 KECCAK256 ADD PUSH0 SWAP1 SLOAD SWAP1 PUSH2 0x100 EXP SWAP1 DIV PUSH20 0xFFFFFFFFFFFFFFFFFFFFFFFFFFFFFFFFFFFFFFFF AND PUSH20 0xFFFFFFFFFFFFFFFFFFFFFFFFFFFFFFFFFFFFFFFF AND PUSH20 0xFFFFFFFFFFFFFFFFFFFFFFFFFFFFFFFFFFFFFFFF AND DUP2 MSTORE PUSH1 0x20 ADD SWAP1 DUP2 MSTORE PUSH1 0x20 ADD PUSH0 KECCAK256 SLOAD CALLVALUE PUSH2 0x4D9 SWAP2 SWAP1 PUSH2 0x7EC JUMP JUMPDEST PUSH2 0x4E3 SWAP2 SWAP1 PUSH2 0x85A JUMP JUMPDEST SWAP1 POP PUSH1 0x2 DUP3 DUP2 SLOAD DUP2 LT PUSH2 0x4F9 JUMPI PUSH2 0x4F8 PUSH2 0x75F JUMP JUMPDEST JUMPDEST SWAP1 PUSH0 MSTORE PUSH1 0x20 PUSH0 KECCAK256 ADD PUSH0 SWAP1 SLOAD SWAP1 PUSH2 0x100 EXP SWAP1 DIV PUSH20 0xFFFFFFFFFFFFFFFFFFFFFFFFFFFFFFFFFFFFFFFF AND PUSH20 0xFFFFFFFFFFFFFFFFFFFFFFFFFFFFFFFFFFFFFFFF AND PUSH2 0x8FC DUP3 SWAP1 DUP2 ISZERO MUL SWAP1 PUSH1 0x40 MLOAD PUSH0 PUSH1 0x40 MLOAD DUP1 DUP4 SUB DUP2 DUP6 DUP9 DUP9 CALL SWAP4 POP POP POP POP ISZERO DUP1 ISZERO PUSH2 0x563 JUMPI RETURNDATASIZE PUSH0 PUSH0 RETURNDATACOPY RETURNDATASIZE PUSH0 REVERT JUMPDEST POP POP DUP1 DUP1 PUSH1 0x1 ADD SWAP2 POP POP PUSH2 0x445 JUMP JUMPDEST POP POP JUMP JUMPDEST PUSH1 0x2 DUP2 DUP2 SLOAD DUP2 LT PUSH2 0x585 JUMPI PUSH0 DUP1 REVERT JUMPDEST SWAP1 PUSH0 MSTORE PUSH1 0x20 PUSH0 KECCAK256 ADD PUSH0 SWAP2 POP SLOAD SWAP1 PUSH2 0x100 EXP SWAP1 DIV PUSH20 0xFFFFFFFFFFFFFFFFFFFFFFFFFFFFFFFFFFFFFFFF AND DUP2 JUMP JUMPDEST PUSH0 PUSH0 SWAP1 SLOAD SWAP1 PUSH2 0x100 EXP SWAP1 DIV PUSH20 0xFFFFFFFFFFFFFFFFFFFFFFFFFFFFFFFFFFFFFFFF AND DUP2 JUMP JUMPDEST PUSH1 0x1 PUSH1 0x20 MSTORE DUP1 PUSH0 MSTORE PUSH1 0x40 PUSH0 KECCAK256 PUSH0 SWAP2 POP SWAP1 POP SLOAD DUP2 JUMP JUMPDEST PUSH0 PUSH0 REVERT JUMPDEST PUSH0 PUSH20 0xFFFFFFFFFFFFFFFFFFFFFFFFFFFFFFFFFFFFFFFF DUP3 AND SWAP1 POP SWAP2 SWAP1 POP JUMP JUMPDEST PUSH0 PUSH2 0x617 DUP3 PUSH2 0x5EE JUMP JUMPDEST SWAP1 POP SWAP2 SWAP1 POP JUMP JUMPDEST PUSH2 0x627 DUP2 PUSH2 0x60D JUMP JUMPDEST DUP2 EQ PUSH2 0x631 JUMPI PUSH0 PUSH0 REVERT JUMPDEST POP JUMP JUMPDEST PUSH0 DUP2 CALLDATALOAD SWAP1 POP PUSH2 0x642 DUP2 PUSH2 0x61E JUMP JUMPDEST SWAP3 SWAP2 POP POP JUMP JUMPDEST PUSH0 DUP2 SWAP1 POP SWAP2 SWAP1 POP JUMP JUMPDEST PUSH2 0x65A DUP2 PUSH2 0x648 JUMP JUMPDEST DUP2 EQ PUSH2 0x664 JUMPI PUSH0 PUSH0 REVERT JUMPDEST POP JUMP JUMPDEST PUSH0 DUP2 CALLDATALOAD SWAP1 POP PUSH2 0x675 DUP2 PUSH2 0x651 JUMP JUMPDEST SWAP3 SWAP2 POP POP JUMP JUMPDEST PUSH0 PUSH0 PUSH1 0x40 DUP4 DUP6 SUB SLT ISZERO PUSH2 0x691 JUMPI PUSH2 0x690 PUSH2 0x5EA JUMP JUMPDEST JUMPDEST PUSH0 PUSH2 0x69E DUP6 DUP3 DUP7 ADD PUSH2 0x634 JUMP JUMPDEST SWAP3 POP POP PUSH1 0x20 PUSH2 0x6AF DUP6 DUP3 DUP7 ADD PUSH2 0x667 JUMP JUMPDEST SWAP2 POP POP SWAP3 POP SWAP3 SWAP1 POP JUMP JUMPDEST PUSH0 PUSH1 0x20 DUP3 DUP5 SUB SLT ISZERO PUSH2 0x6CE JUMPI PUSH2 0x6CD PUSH2 0x5EA JUMP JUMPDEST JUMPDEST PUSH0 PUSH2 0x6DB DUP5 DUP3 DUP6 ADD PUSH2 0x667 JUMP JUMPDEST SWAP2 POP POP SWAP3 SWAP2 POP POP JUMP JUMPDEST PUSH2 0x6ED DUP2 PUSH2 0x60D JUMP JUMPDEST DUP3 MSTORE POP POP JUMP JUMPDEST PUSH0 PUSH1 0x20 DUP3 ADD SWAP1 POP PUSH2 0x706 PUSH0 DUP4 ADD DUP5 PUSH2 0x6E4 JUMP JUMPDEST SWAP3 SWAP2 POP POP JUMP JUMPDEST PUSH0 PUSH1 0x20 DUP3 DUP5 SUB SLT ISZERO PUSH2 0x721 JUMPI PUSH2 0x720 PUSH2 0x5EA JUMP JUMPDEST JUMPDEST PUSH0 PUSH2 0x72E DUP5 DUP3 DUP6 ADD PUSH2 0x634 JUMP JUMPDEST SWAP2 POP POP SWAP3 SWAP2 POP POP JUMP JUMPDEST PUSH2 0x740 DUP2 PUSH2 0x648 JUMP JUMPDEST DUP3 MSTORE POP POP JUMP JUMPDEST PUSH0 PUSH1 0x20 DUP3 ADD SWAP1 POP PUSH2 0x759 PUSH0 DUP4 ADD DUP5 PUSH2 0x737 JUMP JUMPDEST SWAP3 SWAP2 POP POP JUMP JUMPDEST PUSH32 0x4E487B7100000000000000000000000000000000000000000000000000000000 PUSH0 MSTORE PUSH1 0x32 PUSH1 0x4 MSTORE PUSH1 0x24 PUSH0 REVERT JUMPDEST PUSH32 0x4E487B7100000000000000000000000000000000000000000000000000000000 PUSH0 MSTORE PUSH1 0x11 PUSH1 0x4 MSTORE PUSH1 0x24 PUSH0 REVERT JUMPDEST PUSH0 PUSH2 0x7C3 DUP3 PUSH2 0x648 JUMP JUMPDEST SWAP2 POP PUSH2 0x7CE DUP4 PUSH2 0x648 JUMP JUMPDEST SWAP3 POP DUP3 DUP3 ADD SWAP1 POP DUP1 DUP3 GT ISZERO PUSH2 0x7E6 JUMPI PUSH2 0x7E5 PUSH2 0x78C JUMP JUMPDEST JUMPDEST SWAP3 SWAP2 POP POP JUMP JUMPDEST PUSH0 PUSH2 0x7F6 DUP3 PUSH2 0x648 JUMP JUMPDEST SWAP2 POP PUSH2 0x801 DUP4 PUSH2 0x648 JUMP JUMPDEST SWAP3 POP DUP3 DUP3 MUL PUSH2 0x80F DUP2 PUSH2 0x648 JUMP JUMPDEST SWAP2 POP DUP3 DUP3 DIV DUP5 EQ DUP4 ISZERO OR PUSH2 0x826 JUMPI PUSH2 0x825 PUSH2 0x78C JUMP JUMPDEST JUMPDEST POP SWAP3 SWAP2 POP POP JUMP JUMPDEST PUSH32 0x4E487B7100000000000000000000000000000000000000000000000000000000 PUSH0 MSTORE PUSH1 0x12 PUSH1 0x4 MSTORE PUSH1 0x24 PUSH0 REVERT JUMPDEST PUSH0 PUSH2 0x864 DUP3 PUSH2 0x648 JUMP JUMPDEST SWAP2 POP PUSH2 0x86F DUP4 PUSH2 0x648 JUMP JUMPDEST SWAP3 POP DUP3 PUSH2 0x87F JUMPI PUSH2 0x87E PUSH2 0x82D JUMP JUMPDEST JUMPDEST DUP3 DUP3 DIV SWAP1 POP SWAP3 SWAP2 POP POP JUMP INVALID LOG2 PUSH5 0x6970667358 0x22 SLT KECCAK256 ADD GT 0xA8 0xAC 0xD7 SWAP3 0xF9 0xC4 0xA6 EXTCODEHASH CALLCODE 0xD5 PC CALLCODE CALLER 0xA6 EQ 0xFB DUP14 0xF8 DUP9 EXTCODECOPY LOG2 DUP11 0x4D SWAP15 PUSH16 0x8A855A793F64736F6C634300081C0033 "
				},
				"gasEstimates": {
					"creation": {
						"codeDepositCost": "448000",
						"executionCost": "24742",
						"totalCost": "472742"
					},
					"external": {
						"addParticipant(address,uint256)": "75779",
						"distributeRevenue()": "infinite",
						"owner()": "2551",
						"participants(uint256)": "4966",
						"shares(address)": "2868"
					}
				},
				"methodIdentifiers": {
					"addParticipant(address,uint256)": "01e7fefe",
					"distributeRevenue()": "2d07953a",
					"owner()": "8da5cb5b",
					"participants(uint256)": "35c1d349",
					"shares(address)": "ce7c2ac2"
				}
			},
			"storageLayout": {
				"storage": [
					{
						"astId": 10,
						"contract": "contracts/RevenueSharing.sol:RevenueSharing",
						"label": "owner",
						"offset": 0,
						"slot": "0",
						"type": "t_address"
					},
					{
						"astId": 14,
						"contract": "contracts/RevenueSharing.sol:RevenueSharing",
						"label": "shares",
						"offset": 0,
						"slot": "1",
						"type": "t_mapping(t_address,t_uint256)"
					},
					{
						"astId": 17,
						"contract": "contracts/RevenueSharing.sol:RevenueSharing",
						"label": "participants",
						"offset": 0,
						"slot": "2",
						"type": "t_array(t_address)dyn_storage"
					}
				],
				"types": {
					"t_address": {
						"encoding": "inplace",
						"label": "address",
						"numberOfBytes": "20"
					},
					"t_array(t_address)dyn_storage": {
						"base": "t_address",
						"encoding": "dynamic_array",
						"label": "address[]",
						"numberOfBytes": "32"
					},
					"t_mapping(t_address,t_uint256)": {
						"encoding": "mapping",
						"key": "t_address",
						"label": "mapping(address => uint256)",
						"numberOfBytes": "32",
						"value": "t_uint256"
					},
					"t_uint256": {
						"encoding": "inplace",
						"label": "uint256",
						"numberOfBytes": "32"
					}
				}
			},
			"userdoc": {
				"kind": "user",
				"methods": {
					"addParticipant(address,uint256)": {
						"notice": "Adds a participant to the revenue-sharing scheme"
					},
					"distributeRevenue()": {
						"notice": "Distributes the revenue to the participants based on their share percentages"
					}
				},
				"notice": "This contract allows the owner to distribute revenue among participants based on their share percentages.",
				"version": 1
			}
		}
	}
}